{"abi":[{"type":"constructor","inputs":[],"stateMutability":"nonpayable"},{"type":"fallback","stateMutability":"payable"},{"type":"receive","stateMutability":"payable"},{"type":"function","name":"contractBalance","inputs":[],"outputs":[{"name":"","type":"uint256","internalType":"uint256"}],"stateMutability":"view"},{"type":"function","name":"depositETH","inputs":[],"outputs":[],"stateMutability":"payable"},{"type":"function","name":"myBalance","inputs":[],"outputs":[{"name":"","type":"uint256","internalType":"uint256"}],"stateMutability":"view"},{"type":"function","name":"owner","inputs":[],"outputs":[{"name":"","type":"address","internalType":"address"}],"stateMutability":"view"},{"type":"function","name":"withdrawETH","inputs":[{"name":"_ethAmount","type":"uint256","internalType":"uint256"}],"outputs":[],"stateMutability":"nonpayable"},{"type":"event","name":"EthDeposited","inputs":[{"name":"_userAddress","type":"address","indexed":true,"internalType":"address"},{"name":"_ethAmount","type":"uint256","indexed":false,"internalType":"uint256"}],"anonymous":false},{"type":"event","name":"EthWithdrawn","inputs":[{"name":"_userAddress","type":"address","indexed":true,"internalType":"address"},{"name":"_ethAmount","type":"uint256","indexed":false,"internalType":"uint256"}],"anonymous":false},{"type":"error","name":"AmountTooLow","inputs":[]},{"type":"error","name":"BalanceTooLow","inputs":[]},{"type":"error","name":"WithdrawalFailed","inputs":[]}],"bytecode":{"object":"0x60a0604052348015600e575f5ffd5b503373ffffffffffffffffffffffffffffffffffffffff1660808173ffffffffffffffffffffffffffffffffffffffff168152505060805161057161005b5f395f61024001526105715ff3fe60806040526004361061004d575f3560e01c80638b7afe2e146100ac5780638da5cb5b146100d6578063c9116b6914610100578063f14210a61461012a578063f6326fb3146101525761005c565b3661005c5761005a61015c565b005b3373ffffffffffffffffffffffffffffffffffffffff167f66ff7c8f71ccc7c36152a41920d0d3b46ef3034359f76aa1498ed4478c204b5c346040516100a29190610430565b60405180910390a2005b3480156100b7575f5ffd5b506100c0610236565b6040516100cd9190610430565b60405180910390f35b3480156100e1575f5ffd5b506100ea61023d565b6040516100f79190610488565b60405180910390f35b34801561010b575f5ffd5b50610114610264565b6040516101219190610430565b60405180910390f35b348015610135575f5ffd5b50610150600480360381019061014b91906104cf565b6102a7565b005b61015a61040e565b005b66038d7ea4c6800034101561019d576040517f1fbaba3500000000000000000000000000000000000000000000000000000000815260040160405180910390fd5b345f5f3373ffffffffffffffffffffffffffffffffffffffff1673ffffffffffffffffffffffffffffffffffffffff1681526020019081526020015f205f82825401925050819055503373ffffffffffffffffffffffffffffffffffffffff167f66ff7c8f71ccc7c36152a41920d0d3b46ef3034359f76aa1498ed4478c204b5c3460405161022c9190610430565b60405180910390a2565b5f47905090565b5f7f0000000000000000000000000000000000000000000000000000000000000000905090565b5f5f5f3373ffffffffffffffffffffffffffffffffffffffff1673ffffffffffffffffffffffffffffffffffffffff1681526020019081526020015f2054905090565b5f5f3373ffffffffffffffffffffffffffffffffffffffff1673ffffffffffffffffffffffffffffffffffffffff1681526020019081526020015f205481111561031d576040517fa328167200000000000000000000000000000000000000000000000000000000815260040160405180910390fd5b5f3373ffffffffffffffffffffffffffffffffffffffff168260405161034290610527565b5f6040518083038185875af1925050503d805f811461037c576040519150601f19603f3d011682016040523d82523d5f602084013e610381565b606091505b50509050806103bc576040517f27fcd9d100000000000000000000000000000000000000000000000000000000815260040160405180910390fd5b3373ffffffffffffffffffffffffffffffffffffffff167f8455ae6be5d92f1df1c3c1484388e247a36c7e60d72055ae216dbc258f257d4b836040516104029190610430565b60405180910390a25050565b61041661015c565b565b5f819050919050565b61042a81610418565b82525050565b5f6020820190506104435f830184610421565b92915050565b5f73ffffffffffffffffffffffffffffffffffffffff82169050919050565b5f61047282610449565b9050919050565b61048281610468565b82525050565b5f60208201905061049b5f830184610479565b92915050565b5f5ffd5b6104ae81610418565b81146104b8575f5ffd5b50565b5f813590506104c9816104a5565b92915050565b5f602082840312156104e4576104e36104a1565b5b5f6104f1848285016104bb565b91505092915050565b5f81905092915050565b50565b5f6105125f836104fa565b915061051d82610504565b5f82019050919050565b5f61053182610507565b915081905091905056fea2646970667358221220a061a0d5e017829d7c80995aa337a9520a834c2b5253699e2d731ff6b01c795364736f6c634300081e0033","linkReferences":{}},"methodIdentifiers":{"contractBalance()":"8b7afe2e","depositETH()":"f6326fb3","myBalance()":"c9116b69","owner()":"8da5cb5b","withdrawETH(uint256)":"f14210a6"},"id":10}